:020000040800F2
:100000005007002029020008A51200089D120008D0
:10001000A1120008210400082914000800000000B3
:10002000000000000000000000000000AD12000809
:100030002504000800000000A9120008B112000801
:10004000430200084302000843020008430200087C
:10005000430200084302000843020008430200086C
:10006000430200084302000843020008430200085C
:10007000430200084302000843020008430200084C
:10008000430200084302000843020008430200083C
:10009000430200084302000843020008430200082C
:1000A000430200084302000843020008430200081C
:1000B00043020008C9120008430200084302000876
:1000C00043020008430200084302000843020008FC
:1000D00043020008430200084302000843020008EC
:1000E00043020008430200084302000843020008DC
:1000F00043020008430200084302000843020008CC
:1001000043020008430200084302000843020008BB
:100110004302000843020008D5120008E11200085B
:10012000430200084302000843020008430200089B
:100130004302000800000000000000004302000825
:10014000430200084302000843020008430200087B
:10015000430200084302000843020008430200086B
:10016000430200084302000843020008430200085B
:1001700043020008430200080000000000000000E5
:10018000430200084302000800F002F800F03CF8C7
:100190000AA090E8000C82448344AAF10107DA45E2
:1001A00001D100F031F8AFF2090EBAE80F0013F0F8
:1001B000010F18BFFB1A43F001031847C8140000D1
:1001C000E8140000103A24BF78C878C1FAD8520762
:1001D00024BF30C830C144BF04680C6070470000C1
:1001E0000023002400250026103A28BF78C1FBD840
:1001F000520728BF30C148BF0B6070471FB501F0E0
:100200002CFA1FBD10B510BD00F0D0F81146FFF755
:10021000F5FF01F00BF900F0EEF803B4FFF7F2FF81
:1002200003BC00F0F5F80000094880470948004782
:10023000FEE7FEE7FEE7FEE7FEE7FEE7FEE7FEE796
:10024000FEE7FEE704480549054A064B70470000F3
:10025000B512000889010008500100205007002055
:10026000500300205003002053EA020C00F0698084
:100270002DE9F04B4FF00006002B1FBFB3FA83F5BA
:1002800003FA05F424FA05F65E4012BF1643B2FAEB
:1002900082F502FA05F4C5F120051EBF22FA05FC1D
:1002A00044EA0C04203556EA044C4FEA144418BFC3
:1002B000641C4FF000084FF00009904271EB030CF2
:1002C00039D3002919BFB1FA81F701FA07F6B0FA5C
:1002D00080F700FA07F6C7F120071EBF20FA07FCD7
:1002E00046EA0C062037B6FBF4FCA7EB0507103FE7
:1002F00007F01F0BCBF120062CFA06F60CFA0BFBCD
:1003000044BFB3460026202FA4BF5E464FF0000B2B
:100310005BEA060C08BF4FF0010B19EB0B0948EB29
:100320000608ABFB027C06FB02CC0BFB03CCC01B1C
:1003300071EB0C01C1E70B46024641464846BDE859
:10034000F08B13B5084318BF4FF0FF300146AFF3F1
:100350000080BDE81C4070474FF0000200B5134616
:1003600094469646203922BFA0E80C50A0E80C50D5
:10037000B1F12001BFF4F7AF090728BFA0E80C5086
:1003800048BF0CC05DF804EB890028BF40F8042B7F
:1003900008BF704748BF20F8022B11F0804F18BFEC
:1003A00000F8012B7047704770477047754600F0A2
:1003B0002BF8AE4605006946534620F007008546F7
:1003C00018B020B5FFF73EFFBDE820404FF0000613
:1003D0004FF000074FF000084FF0000BAC46ACE8C0
:1003E000C009ACE8C009ACE8C009ACE8C00921F01C
:1003F00007018D46704710B50446AFF300802046D4
:10040000BDE81040FFF709BF00487047100000200A
:1004100001491820ABBEFEE726000200704700002D
:10042000FEE70000704700002DE9F04F82B000F1B8
:100430003E4241F6004502F1FF77C4F20205082270
:1004400043F6004E4FEAB726A84208BF0722C4F27F
:10045000010E072E38BF4FEAB722012500260027DC
:100460004FF00008009208E008F101080437B8F1E5
:10047000100F06F1020600F0A7800C6805FA08F9D3
:1004800014EA090FF0D0D1F804B003220BF0030CEA
:10049000ACF10104B240012C6FEA020A10D8826864
:1004A000CC6802EA0A02B440224382604268CBF37D
:1004B000001422EA090204FA08F42243426005E02B
:1004C000BCF1030F02D14FF0030C20E0C2688C682E
:1004D00002EA0A02B4402243BCF1020FC26016D104
:1004E0006FF0030202EA58020244D2F820C007F07B
:1004F0001C050F230C69AB402CEA030304FA05F535
:100500002B431362D1F804B001250BF0030C0268F1
:100510000CFA06F302EA0A021A431BF4403F026097
:10052000A2D0002243F644030192C4F202031A68E7
:100530004FF6084C42F480421A601A68CFF6FF7CEE
:1005400002F480420192019A28F00302724452F8A8
:100550000C3007F00C050F24AC40A343009C04FAB8
:1005600005F52B4342F80C30DEF808204B6842EAD0
:10057000090543F60C4CDC0258BF22EA0905CEF807
:100580000850C4F2010CDCF800209C0242EA090584
:1005900058BF22EA0905CCF80050DEF804209C037D
:1005A00042EA090558BF22EA0905CEF80450DEF8F0
:1005B0000020DB0342EA090558BF22EA0905CEF80C
:1005C0000050012550E700BF02B0BDE8F08F0000E9
:1005D000426902EA0103914341EA034181617047A4
:1005E000002A08BF090481617047000040F24810EA
:1005F000C2F200000068704740F2000040F248116B
:10060000C2F20000C2F2000100780A6810440860DB
:100610007047000080B543F60040C4F20200016854
:1006200041F400710160016841F48061016001687A
:1006300041F480710160032000F088F80F2000F081
:1006400005F800F027F8002080BD000070B540F2EA
:100650000006C2F2000640F208013278C2F2000140
:100660004FF47A730968B3FBF2F20446B1FBF2F17E
:10067000084600F009FB0F2C4FF0010508D838B9E7
:100680004FF0FF3021460022002500F033F874605F
:10069000284670BD82B0002043F640010190C4F2AC
:1006A00002014A6842F480424A604A6802F4804289
:1006B0000192019A0090086840F080500860086834
:1006C00000F080500090009802B07047002848BFAA
:1006D0007047C1B200F01F00012202FA00F04EF292
:1006E0000012CEF2000242EAD10121F003010860BB
:1006F0007047000010B54EF60C5CCEF2000CDCF832
:100700000030C3F3022E8EF00704042C28BF04240B
:10071000BEF103034FF0FF3E0EFA04F438BF00238E
:10072000A14399400EFA03F39A43114300F00F02DC
:1007300000F160430901043A03F564436244002870
:1007400048BF02F10C03197010BD00004EF60C51A9
:10075000CEF200010A684FF6FF031A4060F30A2246
:1007600042F0806040F0FD70086070472DE9F04174
:10077000002800F08B8043F60808C4F20208044603
:10078000D8F8F8030D4600F00700884207D288F831
:10079000F853D8F8F80300F00700A84276D1206893
:1007A000810717D5410705D5D8F8001041F4E0516D
:1007B000C8F80010010705D5D8F8001041F46041D1
:1007C000C8F80010D8F80010A26821F0F001114319
:1007D000C8F80010C0073FD1D8F8F80300F00700B0
:1007E000A84207D988F8F853D8F8F80300F00700B2
:1007F000A8424BD12068410707D5D8F80010E2681D
:1008000021F4E0511143C8F80010000708D5D8F8CA
:100810000000216920F4604040EAC100C8F80000EF
:1008200000F054F8D8F8001041F27462C1F30311DB
:10083000C0F60002515C40F2080220FA01F140F2D9
:100840000400C2F200000068C2F200021160FFF76B
:10085000FDFE0020BDE8F0816068811E022907D2FC
:1008600058F8081C89015CBF0120BDE8F08111E047
:10087000012807D158F8081C89035CBF0120BDE896
:10088000F08107E058F8081C890703D40120BDE86F
:10089000F08100BFD8F8001021F003010843C8F828
:1008A0000000FFF7A3FE064641F28837D8F80000A3
:1008B000616800F00C00B0EB810F8DD0FFF796FE61
:1008C000801BB842F2D90320BDE8F08110B543F691
:1008D0000404C4F20204606800F00C00082842F22C
:1008E0000040C0F2F40018BF10BD216822682368E0
:1008F00001F03F02C3F38811A1FB00010023FFF7C1
:10090000B3FC21680222C1F3014102EB4101B0FBBB
:10091000F1F010BD2DE9F04182B0002868D0044606
:10092000007843F60006C007C4F202060BD0B06898
:1009300000F00C00042840F09F803068800302D54E
:100940006068002854D0207880071AD5B06810F06D
:100950000C0F09D0B06800F00C00082840F0A68009
:100960007068400200F1A2803068800702D5E0681C
:1009700001283DD13068216920F0F80040EAC1002B
:1009800030602078000737D4207840074CD4A56920
:1009900055B3B06800F00C00082840F0BB80012D72
:1009A00026D07068E16900F480028A4220D1216A71
:1009B00000F03F028A421BD147F6C071626A0140D3
:1009C000B1EB821F14D1A16A4FF6FF73C90399439B
:1009D00000F44032A1F580318A4209D1E16A00F089
:1009E0007060B0EB016F03D1002002B0BDE8F08170
:1009F000012002B0BDE8F0816069002840F20000EB
:100A0000C4F2472076D00121C0F8801EFFF7EEFD2A
:100A1000054600BF706F8007B6D4FFF7E7FD401BA7
:100A20000228F7D9DDE000BF306C10F080580AD101
:100A300000200190306C40F080503064306C00F049
:100A400080500190019847F20007C4F2000738680F
:100A5000C00541D4386840F480703860FFF7C6FDA7
:100A6000054600BF3868C00536D4FFF7BFFD401B00
:100A70000228F7D9B5E000BFB06800F00C000828E4
:100A800003D1706840023FF558AF6068B0F5803F11
:100A900007D0B0F5A02F40F08D80306840F4802062
:100AA0003060306840F4803030608DE0E0680028CD
:100AB00052D00020C4F2472001210160FFF796FDCB
:100AC000054600BF306880073FF554AFFFF78EFD45
:100AD000401B0228F6D984E0A068012805D005282B
:100AE0004ED1306F40F004003067306F40F00100AD
:100AF00030674FE00021C0F8801EFFF777FD054604
:100B0000706F80077FF540AFFFF770FD401B022834
:100B1000F6D966E00027C4F2472700203866FFF7C1
:100B200065FD022D05460BD1306880015ED5FFF7CB
:100B30005DFD401B02284FF00300F5D955E700BFCB
:100B4000306880017FF550AFFFF750FD401B022851
:100B50004FF00300F4D948E70020C4F247200021F9
:100B60000160FFF743FD0546306880077FF509AF58
:100B7000FFF73CFD401B02284FF00300F4D934E797
:100B8000316F002821F001013167316F21F004013C
:100B900031674DD0FFF72AFD054641F2883700BF87
:100BA000306F800756D4FFF721FD401BB842F7D9BC
:100BB00017E000BF3168002821F4803131603168CE
:100BC00021F4802131604FD0FFF710FD054600BFB2
:100BD000306880033FF5B7AEFFF708FD401B64287F
:100BE000F6D9032002B0BDE8F08100BF04F11C0576
:100BF0002FCD084340EA8210D9034FF6FF7291438C
:100C0000A1F5803140EA0560084370600120386634
:100C1000FFF7ECFC044600BF306880013FF5E4AE0E
:100C2000FFF7E4FC001B02284FF00300F4D9DCE6D8
:100C3000FFF7DCFC054641F2883700BF306F8007C4
:100C400008D5FFF7D3FC401BB8424FF00300F5D99D
:100C5000CBE600BFB8F1000F7FF499AE306C20F006
:100C60008050306493E600BFFFF7C0FC054600BF2C
:100C7000306880037FF567AEFFF7B8FC401B64283F
:100C80004FF00300F4D9B0E6411E0020B0EB116F25
:100C90001CBF012070474EF21002CEF200025160DC
:100CA0004EF62351CEF20001F0230B700721906025
:100CB00011607047704700007047000010B590F851
:100CC0003C20012A4FF0020251D080F83D200268FA
:100CD000D2F804E0D2F808C00C682EF07003234369
:100CE00041F2FF74C4F20004A24253600EDC40F2F1
:100CF000FF73C4F200039A4216DCB2F1804F2BD08E
:100D000040F20043C4F2000324E000BF40F2FF338E
:100D1000C4F201039A4213DC41F60003C4F200035B
:100D20009A4219D0002313E040F60003C4F20003F6
:100D30009A4211D040F60043C4F200030AE000BF1B
:100D400044F20003C4F201039A4205D040F200438A
:100D5000C4F201039A4204D149682CF0800319437C
:100D600091600121002280F83D1080F83C2010465F
:100D700010BD0000002804BF0120704710B50446D4
:100D800090F83D0028B9002084F83C00204600F08F
:100D90001FF8022084F83D002068211D00F0A6FA0B
:100DA000012084F8460084F83E0084F83F0084F86F
:100DB000400084F8410084F8420084F8430084F83D
:100DC000440084F8450084F83D00002010BD000078
:100DD00010B584B0006841F20041C4F200018842BD
:100DE0001ED041F20001C4F2000188422AD040F234
:100DF0000041C4F2000188421CBF04B010BD0020B5
:100E0000039043F64000C4F2020001681D2441F043
:100E100002010160006800F002000390039821E0E5
:100E20000020019043F64000C4F20200016837241C
:100E300041F020010160006800F02000019001985D
:100E400010E000BF0020029043F64000C4F2020010
:100E50000168362441F010010160006800F01000C4
:100E600002900298204600210022FFF743FC204612
:100E700004B0BDE81040FFF729BC000090F83D1019
:100E800001291CBF01207047022180F83D10006835
:100E900041F2FF72C168C4F20002904241F00101C8
:100EA000C1600DDC40F2FF71C4F20001884215DC24
:100EB000B0F1804F2AD040F20041C4F2000123E09B
:100EC00040F2FF31C4F20101884213DC41F6000117
:100ED000C4F20001884219D0002113E040F600015D
:100EE000C4F20001884211D040F60041C4F2000172
:100EF0000AE000BF44F20001C4F20101884205D0BB
:100F000040F20041C4F20101884206D1816801F03B
:100F10000701062904BF00207047016841F0010164
:100F2000016000207047000080B590F83C20012A45
:100F30004FF0020200F0C28080F83D20D0F800C0DF
:100F40004FF67772DCF8083023EA0202CCF808206A
:100F50000B684F2B28DC1F2B44DD202B45D0302B7A
:100F600043D0402B40F0AC80D1F804E0C968DCF8F5
:100F70002030DCF8202022F00102CCF82020DCF820
:100F8000182022F0F00242EA011123F00A0242EA9C
:100F90000E02CCF81810CCF82020DCF8081041F034
:100FA000470121F0300180E06F2B27DDB3F5005FB2
:100FB00048D0B3F5805F7AD0702B40F08180D1E9C2
:100FC00001E3C968DCF8082043EA0E0322F47F42FB
:100FD00043EA01211143CCF80810DCF8081041F075
:100FE000770162E00BB1102B6AD1DCF8081021F018
:100FF0007001194341F0070157E000BF502B35D075
:10100000602B5DD1D1F804E0C968DCF8203023F012
:101010001003CCF82030DCF81830DCF8202023F462
:10102000704322F0A00243EA013142EA0E12CCF8EA
:101030001810CCF82020DCF8081041F0670121F0EE
:10104000100132E0D1E901E3C968DCF8082043EA85
:101050000E0322F47F4243EA01211143CCF8081029
:10106000DCF8081041F480411FE000BFD1F804E033
:10107000C968DCF82030DCF8202022F00102CCF82E
:101080002020DCF8182022F0F00242EA011123F0BF
:101090000A0242EA0E02CCF81810CCF82020DCF844
:1010A000081041F0570121F02001CCF8081000226F
:1010B000012180F83D10002180F83C10104680BDD1
:1010C0000122F5E77047000010B501680446086981
:1010D000800744BFC8685FEA807039D40869400758
:1010E00044BFC8685FEA40703ED40869000744BF47
:1010F000C8685FEA007045D40869C00644BFC86884
:101100005FEAC0604AD40869C0071CBFC8685FEACC
:10111000C07051D10869000644BFC8685FEA00602A
:1011200052D40869400644BFC8685FEA406053D49F
:101130000869800646BFC8685FEA806010BD6FF02E
:10114000200220460A61BDE81040FFF7B5BD00BF90
:101150006FF002000861012020778869800743D082
:101160002046FFF7AFFF45E06FF004000861022062
:101170002077886910F4407F40D02046FFF7A2FF17
:1011800042E000BF6FF00800086104202077C869C2
:1011900080073DD02046FFF795FF3FE06FF010003D
:1011A000086108202077C86910F4407F3AD02046B3
:1011B000FFF788FF3CE000BF6FF0010008612046A8
:1011C00000F03EF82168A5E76FF080000861204636
:1011D000FFF770FD2168A4E76FF04000086120462A
:1011E00000F05AF82168A3E7204600F025F82046D1
:1011F00000F024F82168002020776FE7204600F0F7
:101200001BF8204600F01AF82168002020776CE7D0
:10121000204600F011F8204600F010F82168002068
:10122000207769E7204600F007F8204600F006F82E
:1012300021680020207766E77047000070470000B3
:10124000B0B500240546C4F202040068A4F5F831E4
:1012500088420FD0A4F5F631884215D0A4F5FE31AE
:10126000884218BFB0BD20464FF48071BDE8B04041
:10127000FFF7AEB920464FF48051FFF7A9F928686F
:10128000A4F5F6318842E9D120464FF48061FFF79A
:101290009FF92868E2E7000070470000FEE70000C1
:1012A000FEE70000FEE70000704700007047000006
:1012B000FFF7A2B94EF68850CEF20000016841F463
:1012C000700101607047000040F27000C2F200003F
:1012D000FFF7FABE40F2B800C2F20000FFF7F4BE1A
:1012E00040F20010C2F20000FFF7EEBE10B540F66B
:1012F000FF3E0368C4F2000E40F2004C7045C4F299
:10130000010C27DCB0F1804F31D040F20042C4F232
:10131000000290422BD040F60002C4F2000290423C
:1013200025D041F6FF72C4F20002904229DC7045DC
:101330003CDCB0F1804F5FD040F20042C4F20002CA
:10134000904259D040F60002C4F20002904253D0BD
:1013500056E000BF40F60042C4F20002904206D0C0
:10136000604504D00022C4F201029042D9D14A68FB
:1013700023F07003134341F6FF72C4F2000290425F
:10138000D5DD43F6FF72C4F20102904222DC42F244
:101390000002C4F2000290422ED00022C4F20102E8
:1013A000904229D0604527D02AE000BF40F6004295
:1013B000C4F2000290421FD041F60002C4F20002C3
:1013C000904219D041F60042C4F20002904213D07C
:1013D00016E000BF44F20002C4F2010290420BD0BA
:1013E00044F60002C4F20102904205D044F20042E9
:1013F000C4F20102904203D1CA6823F4407313433C
:1014000023F080024B69D1F800E08C681A43026037
:10141000C46240F48062C0F828E0624504BF0969F4
:1014200001630121416110BDFEE7000094B043F665
:10143000300547F20008C4F20205C4F20008FFF7C5
:10144000E9F808AC04F108002821FEF785FF002721
:101450000697CDE90477CDE902770197286901263F
:1014600040F080502861286900F080500190019878
:101470000197D8F8000040F48040C8F80000D8F880
:10148000000000F48040019001984FF480300990F2
:10149000204608960E97FFF73DFA28B1EFF310802B
:1014A00072B600BFFEE700BF0F2002A9C1C102A8AB
:1014B0000021CDE90577FFF759F928B1EFF3108046
:1014C00072B600BFFEE700BF00270C97029728689E
:1014D00008F5C83440F08000286028684FF4A8510F
:1014E00000F080000290029802972868002240F0E5
:1014F00001002860286840F2004500F001000290D9
:1015000002982046C4F200054FF4A856FFF768F889
:101510000120CDE9090708A9204608960B97FEF798
:1015200083FF40F27000C2F2000040F69F7141F666
:101530003F720B97CDE90977CDE90277C0E90051F9
:10154000C0E9027207618761FFF714FC20B1EFF375
:10155000108072B6FEE700BF4FF48050089040F252
:101560007000C2F2000008A9FFF7DEFC20B1EFF323
:10157000108072B6FEE700BF40F27000C2F20000B9
:1015800002A9FFF79BFB28B1EFF3108072B600BFF2
:10159000FEE700BF40F2B800002105F54062C2F24C
:1015A000000040F2E73341F63F77CDE90811C0E98A
:1015B0000023C0E902178161FFF7DCFB20B1EFF3E4
:1015C000108072B6FEE700BF40F2B800C2F2000021
:1015D00008A9FFF773FB28B1EFF3108072B600BFC4
:1015E000FEE700BF40F20010002105F58052C2F274
:1015F000000040F2CF7341F63F77CDE90811C0E912
:101600000023C0E902178161FFF7B4FB20B1EFF3BB
:10161000108072B6FEE700BF40F20010C2F2000078
:1016200008A9FFF74BFB28B1EFF3108072B600BF9B
:10163000FEE700BF40F2B800C2F20000FFF71EFC58
:1016400040F20010C2F20000FFF718FC40F27000F8
:10165000C2F20000FFF712FCFEE7F1EE100A4FF6AF
:10166000FF71C0F2C03120EA010040F04070E1EEAD
:10167000100A70470000000000000000010203048F
:1016800006070809A8160008000000201000000046
:10169000C4010008B8160008100000204007000030
:1016A000E001000800000000010000001000000040
:0816B0000024F400000000001A
:040000050800018965
:00000001FF
