:020000040800F2
:100000000807002029020008DD1C0008151C000854
:10001000D91C00082D040008491E0008000000003B
:10002000000000000000000000000000E51C0008C7
:100030003104000800000000E11C0008E91C000871
:10004000430200084302000843020008430200087C
:10005000430200084302000843020008430200086C
:10006000430200084302000843020008430200085C
:10007000430200084302000843020008430200084C
:10008000430200084302000821040008430200085C
:10009000430200084302000843020008430200082C
:1000A000430200084302000843020008430200081C
:1000B000011D000843020008430200084302000833
:1000C00043020008430200084302000843020008FC
:1000D00043020008430200084302000843020008EC
:1000E00043020008430200084302000843020008DC
:1000F00043020008430200084302000843020008CC
:1001000043020008430200084302000843020008BB
:1001100043020008430200084302000843020008AB
:10012000430200084302000843020008430200089B
:100130004302000800000000000000004302000825
:10014000430200084302000843020008430200087B
:10015000430200084302000843020008430200086B
:10016000430200084302000843020008430200085B
:1001700043020008430200080000000000000000E5
:10018000430200084302000800F002F800F03CF8C7
:100190000AA090E8000C82448344AAF10107DA45E2
:1001A00001D100F031F8AFF2090EBAE80F0013F0F8
:1001B000010F18BFFB1A43F0010318474820000045
:1001C00068200000103A24BF78C878C1FAD85207D6
:1001D00024BF30C830C144BF04680C6070470000C1
:1001E0000023002400250026103A28BF78C1FBD840
:1001F000520728BF30C148BF0B6070471FB501F0E0
:10020000EBFF1FBD10B510BD00F0D0F81146FFF791
:10021000F5FF01F01BFE00F0EEF803B4FFF7F2FF6C
:1002200003BC00F0F5F80000094880470948004782
:10023000FEE7FEE7FEE7FEE7FEE7FEE7FEE7FEE796
:10024000FEE7FEE704480549054A064B70470000F3
:10025000ED1C0008890100080801002008070020A3
:10026000080300200803002053EA020C00F0698014
:100270002DE9F04B4FF00006002B1FBFB3FA83F5BA
:1002800003FA05F424FA05F65E4012BF1643B2FAEB
:1002900082F502FA05F4C5F120051EBF22FA05FC1D
:1002A00044EA0C04203556EA044C4FEA144418BFC3
:1002B000641C4FF000084FF00009904271EB030CF2
:1002C00039D3002919BFB1FA81F701FA07F6B0FA5C
:1002D00080F700FA07F6C7F120071EBF20FA07FCD7
:1002E00046EA0C062037B6FBF4FCA7EB0507103FE7
:1002F00007F01F0BCBF120062CFA06F60CFA0BFBCD
:1003000044BFB3460026202FA4BF5E464FF0000B2B
:100310005BEA060C08BF4FF0010B19EB0B0948EB29
:100320000608ABFB027C06FB02CC0BFB03CCC01B1C
:1003300071EB0C01C1E70B46024641464846BDE859
:10034000F08B13B5084318BF4FF0FF300146AFF3F1
:100350000080BDE81C4070474FF0000200B5134616
:1003600094469646203922BFA0E80C50A0E80C50D5
:10037000B1F12001BFF4F7AF090728BFA0E80C5086
:1003800048BF0CC05DF804EB890028BF40F8042B7F
:1003900008BF704748BF20F8022B11F0804F18BFEC
:1003A00000F8012B7047704770477047754600F0A2
:1003B0002BF8AE4605006946534620F007008546F7
:1003C00018B020B5FFF73EFFBDE820404FF0000613
:1003D0004FF000074FF000084FF0000BAC46ACE8C0
:1003E000C009ACE8C009ACE8C009ACE8C00921F01C
:1003F00007018D46704710B50446AFF300802046D4
:10040000BDE81040FFF709BF00487047100000200A
:1004100001491820ABBEFEE726000200704700002D
:1004200040F2BC00C2F2000000F0BEB8FEE70000DF
:10043000704700007047000070B581B00022009244
:1004400090F83C20012A03D10221084601B070BD7A
:100450000E6801220A2E80F83C2009D3B2B2520065
:10046000D0F800E012FA86F21E3A0EF10C0305E015
:10047000D0F800E006EB46020EF110034FF0070C37
:100480001D680CFA02F4A5431D608D681C6805FA0E
:1004900002F222431A60496806290FD801EB810154
:1004A0004A1F71461F2351F8345F934025EA030326
:1004B0000B60B3B203FA02F214E000BF01EB810358
:1004C0000C29B2B204D8714651F8304F233B03E0F7
:1004D000714651F82C4F413B1F259D4024EA0505EC
:1004E0009A400D600B6842F2043CC4F2010C1A43BE
:1004F000ACF541739E450A603BD1122E06D1DCF863
:10050000001041F48001CCF8001032E026F0010127
:1005100010292ED1DCF80010102E41F40001CCF887
:10052000001026D140F20801C2F2000109684DF620
:100530008362C4F21B32A1FB0212910C01EB810118
:10054000490000910099A1B10099013900910099E9
:1005500079B1009901390091009951B1009901399F
:100560000091009929B10099013900910099002961
:10057000EAD1002180F83C10084601B070BD0000AF
:1005800080B540F2BC00C2F2000000F009F840F271
:100590007001C2F20001088080BD000070470000B9
:1005A0000068C06C7047000070B5044600680668BB
:1005B0004568B10717D515F0200114D0216CC90684
:1005C00003D4216C41F400712164816811F0405F13
:1005D00002D1217E002969D02046FFF7D1FF206893
:1005E0006FF012010160710714D515F0800111D070
:1005F000216CC90603D4216C41F400512164816847
:1006000011F4401F22D02046FFF714FF20686FF03E
:100610000C010160F10706D015F040011CBF016814
:100620005FEAC17134D1B1060FD515F0806108BF02
:1006300070BD616C6FF0200541F0020161640560DE
:100640002046FFF7ABFF2068056070BD816B11F499
:10065000401F02D081684905D5D441684905D2D4EC
:10066000816811F0405FCED1217E0029CBD1416855
:1006700021F080014160206C20F480502064206CC7
:10068000C005C0D4206C40F001002064BBE700BF6F
:10069000206C40F480302064204600F0D1F82068BF
:1006A0006FF001010160B106BFD4CEE7C16A11F459
:1006B000700F03D0816849053FF58EAF416821F086
:1006C00020014160206C20F480702064206CC00404
:1006D0003FF582AF206C40F0010020647CE7000011
:1006E000002804BF0120704710B50446006C0028A4
:1006F0003ED0206CC00645D4206C41F202118843E4
:10070000023042F204312064C4F20101086820F48E
:10071000403008600A6894E809101A43D4F810E0E1
:100720000A604168012321F4807141604168C0F68C
:10073000007341EA0E214160416821F0407141603F
:10074000416841EA0C014160816821F400618160E7
:10075000E168826811438160A16A8268994222F04F
:1007600070628260826813D122F0405119E000BFAC
:10077000204600F067F80020606484F83C00206C9C
:10078000C006B9D50120002184F83C1010BD00BF7F
:1007900011438160816821F040518160E16A826883
:1007A00011438160816821F0020181608168227EAD
:1007B00094F8203041EA42018160416883B141F4FC
:1007C0000061416041684EF2000221F460414160E5
:1007D000616ACFF6FF72436802EB4131194301E0D1
:1007E00021F400614160C16A40F2000C21F4700103
:1007F000C162E2696169CFF6F07CC36A0CEB025218
:100800001A43C262826822F40072826094F8302037
:10081000836843EA42228260826822F480628260B6
:10082000826842EA8121816000206064216C01229B
:1008300062F301012164002184F83C1010BD000026
:100840007047000080B586B042F200010068C4F233
:100850000101002288420592049201D006B080BDB9
:1008600043F630000092C4F20200436943F48073FF
:100870004361436903F480730093009B0092036813
:1008800043F004030360006800F004000090009847
:10089000022001900320CDE9020201F5684001A980
:1008A00000F048F912200021002200F0A1FA1220E5
:1008B00000F08AFA06B080BD70B5044600680D46A7
:1008C0008268520544BF80685FEAC05038D400F0A7
:1008D0000BFA21680A68920749D40646681C3CD086
:1008E000DDB90868800721D5086880073FD408680B
:1008F00080071BD50868800739D40868800715D59C
:100900000868800733D4086880070FD50868800717
:10091000E7D52CE00868800729D400F0E5F9801BB2
:100920002168A842F6D908688007F3D4206C40F00B
:1009300004002064002084F83C00032070BD00BF48
:10094000206C40F020002064002084F83C0001204E
:1009500070BD00BF0868800709D40868800706D406
:10096000086880075CBF08685FEA8070F2D56FF0A6
:1009700012000860206C40F400702064886810F059
:10098000405F01D1207E08B1002070BDC86A10F41C
:10099000700F02D088684005F6D4206C20F4807077
:1009A0002064206CC004EFD4206C40F0010020646F
:1009B000002070BD10B581B00021009190F83C106E
:1009C000012903D1022001B010BD00BF046801213C
:1009D00080F83C10214651F8083FDB0729D10B680D
:1009E0004DF6836243F001030B6040F20803C2F24C
:1009F00000031B68C4F21B32A3FB02239A0C02EB18
:100A000042020092009AA2B1009A013A0092009A22
:100A10007AB1009A013A0092009A52B1009A013AD2
:100A20000092009A2AB1009A013A0092009A002A94
:100A3000EAD10A68036CD2070AD143F010010164BD
:100A400000F1440101200A681043086056E000BF2D
:100A500040F2017223EA020202F5807202646268C7
:100A6000520504D5026C012363F30D320264026C5B
:100A70004FF0000E0023D20444BF426C22F0060364
:100A800042F2043C436480F83CE06FF02200C4F280
:100A9000010C2060DCF80000C0060DD0ACF5417000
:100AA00084422BD14FF60450CFF6FF705CF8000063
:100AB00010F0405F22D125E042F20000C4F20100B4
:100AC000844217D042F20020C4F2010084420DD0CB
:100AD00042F20010C4F2010084420FD1DCF80000A1
:100AE000C00607D0ACF58270844207D1DCF8000064
:100AF000C00603D4086810F0405F03D0002001B0A6
:100B000010BD00BF4FF080409DE70000B0B5044627
:100B100000F0EAF8054640F20000C2F2000000785A
:100B2000611C18BF044400BF00F0DEF8401BA04267
:100B3000FAD3B0BD2DE9F04F82B000F13E4241F64C
:100B4000004502F1FF77C4F20205082243F6004E89
:100B50004FEAB726A84208BF0722C4F2010E072EAB
:100B600038BF4FEAB7220125002600274FF00008C2
:100B7000009208E008F101080437B8F1100F06F1FF
:100B8000020600F0A7800C6805FA08F914EA090FBC
:100B9000F0D0D1F804B003220BF0030CACF1010447
:100BA000B240012C6FEA020A10D88268CC6802EACF
:100BB0000A02B440224382604268CBF3001422EA66
:100BC000090204FA08F42243426005E0BCF1030F75
:100BD00002D14FF0030C20E0C2688C6802EA0A02DE
:100BE000B4402243BCF1020FC26016D16FF0030281
:100BF00002EA58020244D2F820C007F01C050F2375
:100C00000C69AB402CEA030304FA05F52B4313628D
:100C1000D1F804B001250BF0030C02680CFA06F3BE
:100C200002EA0A021A431BF4403F0260A2D00022EB
:100C300043F644030192C4F202031A684FF6084CCB
:100C400042F480421A601A68CFF6FF7C02F48042B8
:100C50000192019A28F00302724452F80C3007F016
:100C60000C050F24AC40A343009C04FA05F52B436C
:100C700042F80C30DEF808204B6842EA090543F6DA
:100C80000C4CDC0258BF22EA0905CEF80850C4F229
:100C9000010CDCF800209C0242EA090558BF22EA58
:100CA0000905CCF80050DEF804209C0342EA09054F
:100CB00058BF22EA0905CEF80450DEF80020DB0315
:100CC00042EA090558BF22EA0905CEF8005001257D
:100CD00050E700BF02B0BDE8F08F0000002A08BF57
:100CE000090481617047000040F20410C2F2000064
:100CF0000068704740F2000040F20411C2F20000A8
:100D0000C2F2000100780A681044086070470000D1
:100D100080B543F60040C4F20200016841F400715E
:100D20000160016841F480610160016841F48071F3
:100D30000160032000F088F80F2000F005F800F0B3
:100D400027F8002080BD000070B540F20006C2F216
:100D5000000640F208013278C2F200014FF47A73C3
:100D60000968B3FBF2F20446B1FBF2F1084600F069
:100D700009FB0F2C4FF0010508D838B94FF0FF30B0
:100D800021460022002500F033F87460284670BD2B
:100D900082B0002043F640010190C4F202014A688B
:100DA00042F480424A604A6802F480420192019A09
:100DB0000090086840F080500860086800F080509B
:100DC0000090009802B07047002848BF7047C1B239
:100DD00000F01F00012202FA00F04EF20012CEF2E3
:100DE000000242EAD10121F00301086070470000CF
:100DF00010B54EF60C5CCEF2000CDCF80030C3F3FC
:100E0000022E8EF00704042C28BF0424BEF1030335
:100E10004FF0FF3E0EFA04F438BF0023A14399407F
:100E20000EFA03F39A43114300F00F0200F16043FE
:100E30000901043A03F564436244002848BF02F103
:100E40000C03197010BD00004EF60C51CEF20001DB
:100E50000A684FF6FF031A4060F30A2242F08060EE
:100E600040F0FD70086070472DE9F041002800F067
:100E70008B8043F60808C4F202080446D8F8F80349
:100E80000D4600F00700884207D288F8F853D8F8DA
:100E9000F80300F00700A84276D12068810717D533
:100EA000410705D5D8F8001041F4E051C8F800100A
:100EB000010705D5D8F8001041F46041C8F80010CA
:100EC000D8F80010A26821F0F0011143C8F8001012
:100ED000C0073FD1D8F8F80300F00700A84207D9AF
:100EE00088F8F853D8F8F80300F00700A8424BD16F
:100EF0002068410707D5D8F80010E26821F4E051D6
:100F00001143C8F80010000708D5D8F8000021697F
:100F100020F4604040EAC100C8F8000000F054F836
:100F2000D8F8001042F2F212C1F30311C0F6000229
:100F3000515C40F2080220FA01F140F20400C2F2D2
:100F400000000068C2F200021160FFF7FDFE002001
:100F5000BDE8F0816068811E022907D258F8081C9C
:100F600089015CBF0120BDE8F08111E0012807D1B3
:100F700058F8081C89035CBF0120BDE8F08107E038
:100F800058F8081C890703D40120BDE8F08100BF90
:100F9000D8F8001021F003010843C8F80000FFF75B
:100FA000A3FE064641F28837D8F80000616800F0D9
:100FB0000C00B0EB810F8DD0FFF796FE801BB8427E
:100FC000F2D90320BDE8F08110B543F60404C4F261
:100FD0000204606800F00C00082842F20040C0F2F1
:100FE000F40018BF10BD21682268236801F03F0299
:100FF000C3F38811A1FB00010023FFF735F9216835
:101000000222C1F3014102EB4101B0FBF1F010BD3E
:101010002DE9F04182B0002868D00446007843F6FC
:101020000006C007C4F202060BD0B06800F00C0046
:10103000042840F09F803068800302D56068002853
:1010400054D0207880071AD5B06810F00C0F09D062
:10105000B06800F00C00082840F0A68070684002DC
:1010600000F1A2803068800702D5E06801283DD1F8
:101070003068216920F0F80040EAC1003060207833
:10108000000737D4207840074CD4A56955B3B06821
:1010900000F00C00082840F0BB80012D26D07068BD
:1010A000E16900F480028A4220D1216A00F03F0207
:1010B0008A421BD147F6C071626A0140B1EB821FC0
:1010C00014D1A16A4FF6FF73C903994300F440326B
:1010D000A1F580318A4209D1E16A00F07060B0EB7D
:1010E000016F03D1002002B0BDE8F081012002B001
:1010F000BDE8F0816069002840F20000C4F247209A
:1011000076D00121C0F8801EFFF7EEFD054600BF36
:10111000706F8007B6D4FFF7E7FD401B0228F7D9B0
:10112000DDE000BF306C10F080580AD10020019043
:10113000306C40F080503064306C00F08050019092
:10114000019847F20007C4F200073868C00541D48F
:10115000386840F480703860FFF7C6FD054600BF70
:101160003868C00536D4FFF7BFFD401B0228F7D909
:10117000B5E000BFB06800F00C00082803D170682B
:1011800040023FF558AF6068B0F5803F07D0B0F53A
:10119000A02F40F08D80306840F4802030603068AF
:1011A00040F4803030608DE0E068002852D00020AC
:1011B000C4F2472001210160FFF796FD054600BFFC
:1011C000306880073FF554AFFFF78EFD401B0228C3
:1011D000F6D984E0A068012805D005284ED1306FEB
:1011E00040F004003067306F40F0010030674FE09E
:1011F0000021C0F8801EFFF777FD0546706F80075D
:101200007FF540AFFFF770FD401B0228F6D966E07E
:101210000027C4F2472700203866FFF765FD022D3E
:1012200005460BD1306880015ED5FFF75DFD401BA0
:1012300002284FF00300F5D955E700BF3068800160
:101240007FF550AFFFF750FD401B02284FF0030021
:10125000F4D948E70020C4F2472000210160FFF7DD
:1012600043FD0546306880077FF509AFFFF73CFD79
:10127000401B02284FF00300F4D934E7316F0028F7
:1012800021F001013167316F21F0040131674DD048
:10129000FFF72AFD054641F2883700BF306F80070F
:1012A00056D4FFF721FD401BB842F7D917E000BF25
:1012B0003168002821F480313160316821F48021C7
:1012C00031604FD0FFF710FD054600BF3068800346
:1012D0003FF5B7AEFFF708FD401B6428F6D90320A1
:1012E00002B0BDE8F08100BF04F11C052FCD08431A
:1012F00040EA8210D9034FF6FF729143A1F5803185
:1013000040EA05600843706001203866FFF7ECFC96
:10131000044600BF306880013FF5E4AEFFF7E4FC0F
:10132000001B02284FF00300F4D9DCE6FFF7DCFCD9
:10133000054641F2883700BF306F800708D5FFF7B8
:10134000D3FC401BB8424FF00300F5D9CBE600BFF9
:10135000B8F1000F7FF499AE306C20F0805030640B
:1013600093E600BFFFF7C0FC054600BF306880036E
:101370007FF567AEFFF7B8FC401B64284FF0030011
:10138000F4D9B0E6411E0020B0EB116F1CBF012064
:1013900070474EF21002CEF2000251604EF6235119
:1013A000CEF20001F0230B700721906011607047AE
:1013B000704700007047000010B590F83C20012AEB
:1013C0004FF0020251D080F83D200268D2F804E0CC
:1013D000D2F808C00C682EF07003234341F2FF746A
:1013E000C4F20004A24253600EDC40F2FF73C4F268
:1013F00000039A4216DCB2F1804F2BD040F200433A
:10140000C4F2000324E000BF40F2FF33C4F2010342
:101410009A4213DC41F60003C4F200039A4219D049
:10142000002313E040F60003C4F200039A4211D0F7
:1014300040F60043C4F200030AE000BF44F2000398
:10144000C4F201039A4205D040F20043C4F2010302
:101450009A4204D149682CF080031943916001211C
:10146000002280F83D1080F83C20104610BD00009E
:10147000002804BF0120704710B5044690F83D00D5
:1014800028B9002084F83C00204600F01FF8022014
:1014900084F83D002068211D00F038FC012084F80C
:1014A000460084F83E0084F83F0084F8400084F849
:1014B000410084F8420084F8430084F8440084F832
:1014C000450084F83D00002010BD000080B582B0CA
:1014D0000068B0F1804F1CBF02B080BD00200190B9
:1014E00043F64000C4F202000168002241F001010D
:1014F00001600068002100F00100019001981C20AB
:10150000FFF776FC1C2002B0BDE88040FFF75CBC12
:1015100080B590F83C20012A4FF0020200F0C28012
:1015200080F83D20D0F800C04FF67772DCF8083024
:1015300023EA0202CCF808200B684F2B28DC1F2B73
:1015400044DD202B45D0302B43D0402B40F0AC80E5
:10155000D1F804E0C968DCF82030DCF8202022F063
:101560000102CCF82020DCF8182022F0F00242EA38
:10157000011123F00A0242EA0E02CCF81810CCF84E
:101580002020DCF8081041F0470121F0300180E014
:101590006F2B27DDB3F5005F48D0B3F5805F7AD0BD
:1015A000702B40F08180D1E901E3C968DCF80820A4
:1015B00043EA0E0322F47F4243EA01211143CCF8AF
:1015C0000810DCF8081041F0770162E00BB1102B35
:1015D0006AD1DCF8081021F07001194341F00701CD
:1015E00057E000BF502B35D0602B5DD1D1F804E01F
:1015F000C968DCF8203023F01003CCF82030DCF888
:101600001830DCF8202023F4704322F0A00243EAD3
:10161000013142EA0E12CCF81810CCF82020DCF888
:10162000081041F0670121F0100132E0D1E901E337
:10163000C968DCF8082043EA0E0322F47F4243EA3B
:1016400001211143CCF80810DCF8081041F4804166
:101650001FE000BFD1F804E0C968DCF82030DCF8F6
:10166000202022F00102CCF82020DCF8182022F003
:10167000F00242EA011123F00A0242EA0E02CCF81B
:101680001810CCF82020DCF8081041F0570121F0A8
:101690002001CCF808100022012180F83D10002123
:1016A00080F83C10104680BD0122F5E7704700002D
:1016B00010B5016804460869800744BFC8685FEA3E
:1016C000807039D40869400744BFC8685FEA407039
:1016D0003ED40869000744BFC8685FEA007045D47B
:1016E0000869C00644BFC8685FEAC0604AD4086998
:1016F000C0071CBFC8685FEAC07051D10869000606
:1017000044BFC8685FEA006052D40869400644BF1D
:10171000C8685FEA406053D40869800646BFC8685D
:101720005FEA806010BD6FF0200220460A61BDE8CC
:101730001040FFF73FBE00BF6FF0020008610120BC
:1017400020778869800743D02046FFF7AFFF45E048
:101750006FF00400086102202077886910F4407F50
:1017600040D02046FFF7A2FF42E000BF6FF0080024
:10177000086104202077C86980073DD02046FFF724
:1017800095FF3FE06FF01000086108202077C869DE
:1017900010F4407F3AD02046FFF788FF3CE000BFBE
:1017A0006FF001000861204600F030FA2168A5E7DB
:1017B0006FF0800008612046FFF7FAFD2168A4E77A
:1017C0006FF040000861204600F022FA2168A3E78C
:1017D000204600F04BF8204600F08CF921680020EC
:1017E00020776FE7204600F041F8204600F082F9AC
:1017F0002168002020776CE7204600F037F820466B
:1018000000F078F921680020207769E7204600F091
:101810002DF8204600F06EF921680020207766E759
:1018200080B586B00068B0F1804F01D006B080BDB1
:10183000002043F630010190C4F202010A6842F030
:1018400001020A600968022201F001010191019977
:101850000121CDE90220CDE9040100200191C4F26B
:10186000020001A9FFF766F906B080BD70470000CD
:101870002DE9F04390F83C30012B04BF0220BDE875
:10188000F0834FEAB202032A00F2FC80DFE802F0A4
:10189000023E7EBE036840F200471A6A43F4806548
:1018A00022F001021A621C6A1A46D3F804E052F8C8
:1018B00018CF8E6824F00204C4F20107BD4244EA46
:1018C000060405D1CE6824F00C0426F00406344347
:1018D0000E68BD4207D1D1E905572EF4407E45EA96
:1018E0000E0545EA070E2CF073073743C3F804E0F2
:1018F0009F614F6809695F631C629F6947F0080731
:101900009F619F6927F004079F61B1E0036840F27F
:1019100000481A6A43F4806522F010021A621C6AB9
:101920001A46D3F804C052F818EF8F6824F0200448
:10193000C4F20108454544EA071407D1CF686FF0A7
:10194000400624F0C00406EA07163443D1F800909C
:10195000454506D1D1E905562CF440672E4347EAA8
:10196000860C2EF4E64747EA0927C3F804C09F61B6
:101970004F6809699F631C629F6947F400679F6114
:101980009F6927F480679F6171E000BF036840F2A0
:1019900000481A6A43F4806522F480721A621C6A55
:1019A0001A46D3F804C052F81CEF8F6824F4007470
:1019B000C4F20108454544EA072408D1CF6840F243
:1019C000FF463F0224F4406427EA06063443D1F878
:1019D0000090454506D1D1E905562CF440572E43D9
:1019E00047EA061C2EF0730747EA0907C3F804C04C
:1019F000DF614F680969DF631C62DF6947F0080730
:101A0000DF61DF6927F00407DF6131E0036840F23E
:101A100000451A6A43F4806722F480521A621A461B
:101A2000D3F820C05C6852F81CEFD1F800808E68B3
:101A3000C4F20105AF4204D14D6924F4804444EA64
:101A400085142CF4005747EA06372EF4E64646EA9A
:101A500008265C60DE614E6809691E641F62DF69EA
:101A600047F40067DF61DF6927F48067DF610902FF
:101A70001368194311600021002280F83C200846B9
:101A8000BDE8F0830121002280F83C200846BDE833
:101A9000F0830000002804BF0120704710B5044601
:101AA00090F83D0028B9002084F83C00204600F062
:101AB0001FF8022084F83D002068211D00F026F95F
:101AC000012084F8460084F83E0084F83F0084F842
:101AD000400084F8410084F8420084F8430084F810
:101AE000440084F8450084F83D00002010BD00004B
:101AF000704700007047000041B1082910D0042948
:101B000014BF00F1410200F13F020BE090F83E20CB
:101B1000012A1CBF01207047022280F83E2013E0FA
:101B200000F140021278012A1CBF012070470222F6
:101B3000082907D0042914BF80F8412080F83F20ED
:101B400002E000BF80F84020006801F01F01012280
:101B5000036A02FA01F123EA01020262026A1143F6
:101B600041F2FF72C4F20002904201620CDC40F2CA
:101B7000FF71C4F20001884214DCB0F1804F37D00D
:101B800040F2004116E000BF40F2FF31C4F2010113
:101B9000884215DC41F60001C4F20001884227D0DA
:101BA000002115E040F60001C4F2000188421FD078
:101BB00040F60041C4F20001884219D01FE000BF86
:101BC00044F20001C4F20101884211D040F2004108
:101BD000C4F20101884212D1416C40F2004340F44A
:101BE0008062C4F2010341F400419A42416406D18B
:101BF000816801F00701062904BF002070470168D1
:101C000041F00101016000207047000070470000B2
:101C100070470000FEE7000010B58EB040F270047F
:101C2000C2F200044FF080422046002140F8042F09
:101C30004FF6FF720D91CDE90B11CDE90811CDE9F9
:101C40000611CDE90411C0E90111C0E90321802189
:101C50008161FFF70DFC28B1EFF3108072B600BF71
:101C6000FEE700BF4FF4805004340A900AA92046D2
:101C7000FFF74EFC20B1EFF3108072B6FEE700BF15
:101C80002046FFF707FF28B1EFF3108072B600BFC0
:101C9000FEE700BF08A92046FFF78EFB20B1EFF357
:101CA000108072B6FEE700BF602001900020CDE9F1
:101CB0000200059001A920460022FFF7D9FD28B1B6
:101CC000EFF3108072B600BFFEE700BF2046FFF7BB
:101CD000A7FD0EB010BD0000FEE70000FEE700000B
:101CE0007047000070470000FFF704B84EF68850B8
:101CF000CEF20000016841F47001016070470000FD
:101D000040F27400C2F20000FFF7D2BC10B540F6FA
:101D1000FF3E0368C4F2000E40F2004C7045C4F26E
:101D2000010C27DCB0F1804F31D040F20042C4F208
:101D3000000290422BD040F60002C4F20002904212
:101D400025D041F6FF72C4F20002904229DC7045B2
:101D50003CDCB0F1804F5FD040F20042C4F20002A0
:101D6000904259D040F60002C4F20002904253D093
:101D700056E000BF40F60042C4F20002904206D096
:101D8000604504D00022C4F201029042D9D14A68D1
:101D900023F07003134341F6FF72C4F20002904235
:101DA000D5DD43F6FF72C4F20102904222DC42F21A
:101DB0000002C4F2000290422ED00022C4F20102BE
:101DC000904229D0604527D02AE000BF40F600426B
:101DD000C4F2000290421FD041F60002C4F2000299
:101DE000904219D041F60042C4F20002904213D052
:101DF00016E000BF44F20002C4F2010290420BD090
:101E000044F60002C4F20102904205D044F20042BE
:101E1000C4F20102904203D1CA6823F44073134311
:101E200023F080024B69D1F800E08C681A4302600D
:101E3000C46240F48062C0F828E0624504BF0969CA
:101E400001630121416110BDFEE7000092B043F63D
:101E5000300847F20005C4F20208C4F20005FEF79C
:101E600057FF06AC04F108002821FEF775FA00269A
:101E70000596CDE90366CDE901660096D8F8100015
:101E8000012740F08050C8F81000D8F8100000F08A
:101E90008050009000980096286840F480402860A8
:101EA000286800F48040009000984FF4803007903C
:101EB000204606970C96FFF7ABF828B1EFF3108099
:101EC00072B600BFFEE700BF0F20CDE9010701A8F1
:101ED0000021CDE903660596FEF7C6FF20B1EFF3BA
:101EE000108072B6FEE700BF0024CDE909440194DA
:101EF000D8F8000005F5C83940F08000C8F80000A7
:101F0000D8F800004FF4A05100F080000190019833
:101F10000194D8F80000002240F00400C8F8000046
:101F2000D8F800004FF4A05700F004000190019889
:101F30000194D8F8000040F00100C8F80000D8F87B
:101F4000000000F00100019001984846FEF7C6FE2F
:101F50004FF4007005F5CC3A06AECDE906045046C4
:101F600031460894FEF7E6FD4FF42060CDE9060403
:101F7000484631460894FEF7DDFD4FF0010B484618
:101F800031460697CDE907B40994FEF7D3FD40F238
:101F9000BC00012105F53047C2F20000C0F6007117
:101FA0000994047680F82040C0E90A14C0F81CB0F7
:101FB00080F83040C0E90074C0E90244C0E9044B35
:101FC000FEF78EFB20B1EFF3108072B6FEE700BF84
:101FD0000B20CDE9060B40F2BC000DF1180BC2F24C
:101FE000000059460894FEF727FA28B1EFF3108055
:101FF00072B600BFFEE700BFFFF70EFE40F27006AC
:10200000C2F20006301D00210024FFF775FDFEF727
:102010007FFE0BF108002821FEF79EF90594CDE91B
:102020000344CDE901440094D8F8100040F08050FA
:10203000C8F81000D8F8100000F080500090009808
:102040000094286840F4804028602868012500F446
:102050008040009000984FF48030079058460695D5
:102060000C94FEF7D5FF28B1EFF3108072B600BFD5
:10207000FEE700BF0F20CDE9010501A80021CDE951
:1020800003440594FEF7F0FE20B1EFF3108072B622
:10209000FEE700BF0024CDE909440194D8F8000010
:1020A0004FF4A05140F08000C8F80000D8F80000BC
:1020B000002200F08000019001980194D8F80000FF
:1020C00040F00400C8F80000D8F8000000F0040058
:1020D000019001980194D8F8000040F00100C8F880
:1020E0000000D8F800004FF4A05800F00100019063
:1020F00001984846FEF7F2FD4FF4007006ADCDE9B9
:102100000604504629460894FEF714FD4FF420605B
:10211000CDE90604484629460894FEF70BFDCDF8A4
:1021200018804FF0010848462946CDE907840994F4
:10213000FEF700FD40F2BC010120C2F20001C0F632
:102140000070C1E90A04084609940C7681F8204021
:10215000C1F81C8081F83040C1E90074C1E9024433
:10216000C1E90448FEF7BCFA20B1EFF3108072B663
:10217000FEE700BF0B20CDE9060840F2BC00C2F22A
:10218000000006A90894FEF757F928B1EFF3108074
:1021900072B600BFFEE700BFFFF73EFD40F2BC0491
:1021A0004FF6F0753427C2F20004C0F20F05C4F2F6
:1021B000000700BF2046FEF7FDFB20460121FEF789
:1021C0007BFB2046FEF7ECF9308005EA0010386012
:1021D0000120FEF79BFCEDE7F1EE100A4FF6FF71D0
:1021E000C0F2C03120EA010040F04070E1EE100A78
:1021F0007047000000000000000001020304060711
:10220000080900002822000800000020100000003B
:10221000C40100083822000810000020F806000061
:10222000E0010008000000000100000010000000B4
:082230000024F400000000008E
:040000050800018965
:00000001FF
